{
  "_format": "hh-sol-artifact-1",
  "contractName": "BuyMeACoffee",
  "sourceName": "contracts/BuyMeACoffee.sol",
  "abi": [
    {
      "inputs": [],
      "stateMutability": "nonpayable",
      "type": "constructor"
    },
    {
      "anonymous": false,
      "inputs": [
        {
          "indexed": true,
          "internalType": "address",
          "name": "from",
          "type": "address"
        },
        {
          "indexed": false,
          "internalType": "uint256",
          "name": "timestamp",
          "type": "uint256"
        },
        {
          "indexed": false,
          "internalType": "string",
          "name": "message",
          "type": "string"
        },
        {
          "indexed": false,
          "internalType": "string",
          "name": "name",
          "type": "string"
        }
      ],
      "name": "NewMemo",
      "type": "event"
    },
    {
      "inputs": [],
      "name": "WithEth",
      "outputs": [],
      "stateMutability": "nonpayable",
      "type": "function"
    },
    {
      "inputs": [
        {
          "internalType": "string",
          "name": "_message",
          "type": "string"
        },
        {
          "internalType": "string",
          "name": "_name",
          "type": "string"
        }
      ],
      "name": "buyCoffee",
      "outputs": [],
      "stateMutability": "payable",
      "type": "function"
    },
    {
      "inputs": [
        {
          "internalType": "uint256",
          "name": "",
          "type": "uint256"
        }
      ],
      "name": "memos",
      "outputs": [
        {
          "internalType": "address",
          "name": "from",
          "type": "address"
        },
        {
          "internalType": "uint256",
          "name": "timestamp",
          "type": "uint256"
        },
        {
          "internalType": "string",
          "name": "message",
          "type": "string"
        },
        {
          "internalType": "string",
          "name": "name",
          "type": "string"
        }
      ],
      "stateMutability": "view",
      "type": "function"
    },
    {
      "inputs": [],
      "name": "printMemo",
      "outputs": [
        {
          "components": [
            {
              "internalType": "address",
              "name": "from",
              "type": "address"
            },
            {
              "internalType": "uint256",
              "name": "timestamp",
              "type": "uint256"
            },
            {
              "internalType": "string",
              "name": "message",
              "type": "string"
            },
            {
              "internalType": "string",
              "name": "name",
              "type": "string"
            }
          ],
          "internalType": "struct BuyMeACoffee.Memo[]",
          "name": "",
          "type": "tuple[]"
        }
      ],
      "stateMutability": "view",
      "type": "function"
    }
  ],
  "bytecode": "0x608060405234801561001057600080fd5b5033600160006101000a81548173ffffffffffffffffffffffffffffffffffffffff021916908373ffffffffffffffffffffffffffffffffffffffff160217905550610eec806100616000396000f3fe60806040526004361061003f5760003560e01c80630791c53214610044578063204206e11461005b578063dedc765b14610077578063e8dfdf04146100a2575b600080fd5b34801561005057600080fd5b506100596100e2565b005b61007560048036038101906100709190610774565b61014d565b005b34801561008357600080fd5b5061008c6102c7565b60405161009991906109f1565b60405180910390f35b3480156100ae57600080fd5b506100c960048036038101906100c49190610a3f565b6104aa565b6040516100d99493929190610ad4565b60405180910390f35b600160009054906101000a900473ffffffffffffffffffffffffffffffffffffffff1673ffffffffffffffffffffffffffffffffffffffff166108fc479081150290604051600060405180830381858888f1935050505015801561014a573d6000803e3d6000fd5b50565b60003411610190576040517f08c379a000000000000000000000000000000000000000000000000000000000815260040161018790610b73565b60405180910390fd5b600060405180608001604052803373ffffffffffffffffffffffffffffffffffffffff16815260200142815260200184815260200183815250908060018154018082558091505060019003906000526020600020906004020160009091909190915060008201518160000160006101000a81548173ffffffffffffffffffffffffffffffffffffffff021916908373ffffffffffffffffffffffffffffffffffffffff1602179055506020820151816001015560408201518160020190816102589190610d9f565b50606082015181600301908161026e9190610d9f565b5050503373ffffffffffffffffffffffffffffffffffffffff167fc56140e05f516509ae28110e0f72e17558a7561630dad2647c3ae87d986e365c4284846040516102bb93929190610e71565b60405180910390a25050565b60606000805480602002602001604051908101604052809291908181526020016000905b828210156104a157838290600052602060002090600402016040518060800160405290816000820160009054906101000a900473ffffffffffffffffffffffffffffffffffffffff1673ffffffffffffffffffffffffffffffffffffffff1673ffffffffffffffffffffffffffffffffffffffff1681526020016001820154815260200160028201805461037e90610bc2565b80601f01602080910402602001604051908101604052809291908181526020018280546103aa90610bc2565b80156103f75780601f106103cc576101008083540402835291602001916103f7565b820191906000526020600020905b8154815290600101906020018083116103da57829003601f168201915b5050505050815260200160038201805461041090610bc2565b80601f016020809104026020016040519081016040528092919081815260200182805461043c90610bc2565b80156104895780601f1061045e57610100808354040283529160200191610489565b820191906000526020600020905b81548152906001019060200180831161046c57829003601f168201915b505050505081525050815260200190600101906102eb565b50505050905090565b600081815481106104ba57600080fd5b90600052602060002090600402016000915090508060000160009054906101000a900473ffffffffffffffffffffffffffffffffffffffff169080600101549080600201805461050990610bc2565b80601f016020809104026020016040519081016040528092919081815260200182805461053590610bc2565b80156105825780601f1061055757610100808354040283529160200191610582565b820191906000526020600020905b81548152906001019060200180831161056557829003601f168201915b50505050509080600301805461059790610bc2565b80601f01602080910402602001604051908101604052809291908181526020018280546105c390610bc2565b80156106105780601f106105e557610100808354040283529160200191610610565b820191906000526020600020905b8154815290600101906020018083116105f357829003601f168201915b5050505050905084565b6000604051905090565b600080fd5b600080fd5b600080fd5b600080fd5b6000601f19601f8301169050919050565b7f4e487b7100000000000000000000000000000000000000000000000000000000600052604160045260246000fd5b61068182610638565b810181811067ffffffffffffffff821117156106a05761069f610649565b5b80604052505050565b60006106b361061a565b90506106bf8282610678565b919050565b600067ffffffffffffffff8211156106df576106de610649565b5b6106e882610638565b9050602081019050919050565b82818337600083830152505050565b6000610717610712846106c4565b6106a9565b90508281526020810184848401111561073357610732610633565b5b61073e8482856106f5565b509392505050565b600082601f83011261075b5761075a61062e565b5b813561076b848260208601610704565b91505092915050565b6000806040838503121561078b5761078a610624565b5b600083013567ffffffffffffffff8111156107a9576107a8610629565b5b6107b585828601610746565b925050602083013567ffffffffffffffff8111156107d6576107d5610629565b5b6107e285828601610746565b9150509250929050565b600081519050919050565b600082825260208201905092915050565b6000819050602082019050919050565b600073ffffffffffffffffffffffffffffffffffffffff82169050919050565b600061084382610818565b9050919050565b61085381610838565b82525050565b6000819050919050565b61086c81610859565b82525050565b600081519050919050565b600082825260208201905092915050565b60005b838110156108ac578082015181840152602081019050610891565b60008484015250505050565b60006108c382610872565b6108cd818561087d565b93506108dd81856020860161088e565b6108e681610638565b840191505092915050565b6000608083016000830151610909600086018261084a565b50602083015161091c6020860182610863565b506040830151848203604086015261093482826108b8565b9150506060830151848203606086015261094e82826108b8565b9150508091505092915050565b600061096783836108f1565b905092915050565b6000602082019050919050565b6000610987826107ec565b61099181856107f7565b9350836020820285016109a385610808565b8060005b858110156109df57848403895281516109c0858261095b565b94506109cb8361096f565b925060208a019950506001810190506109a7565b50829750879550505050505092915050565b60006020820190508181036000830152610a0b818461097c565b905092915050565b610a1c81610859565b8114610a2757600080fd5b50565b600081359050610a3981610a13565b92915050565b600060208284031215610a5557610a54610624565b5b6000610a6384828501610a2a565b91505092915050565b610a7581610838565b82525050565b610a8481610859565b82525050565b600082825260208201905092915050565b6000610aa682610872565b610ab08185610a8a565b9350610ac081856020860161088e565b610ac981610638565b840191505092915050565b6000608082019050610ae96000830187610a6c565b610af66020830186610a7b565b8181036040830152610b088185610a9b565b90508181036060830152610b1c8184610a9b565b905095945050505050565b7f4e656564206d6f72652065746820746f20627579206120636f66666565000000600082015250565b6000610b5d601d83610a8a565b9150610b6882610b27565b602082019050919050565b60006020820190508181036000830152610b8c81610b50565b9050919050565b7f4e487b7100000000000000000000000000000000000000000000000000000000600052602260045260246000fd5b60006002820490506001821680610bda57607f821691505b602082108103610bed57610bec610b93565b5b50919050565b60008190508160005260206000209050919050565b60006020601f8301049050919050565b600082821b905092915050565b600060088302610c557fffffffffffffffffffffffffffffffffffffffffffffffffffffffffffffffff82610c18565b610c5f8683610c18565b95508019841693508086168417925050509392505050565b6000819050919050565b6000610c9c610c97610c9284610859565b610c77565b610859565b9050919050565b6000819050919050565b610cb683610c81565b610cca610cc282610ca3565b848454610c25565b825550505050565b600090565b610cdf610cd2565b610cea818484610cad565b505050565b5b81811015610d0e57610d03600082610cd7565b600181019050610cf0565b5050565b601f821115610d5357610d2481610bf3565b610d2d84610c08565b81016020851015610d3c578190505b610d50610d4885610c08565b830182610cef565b50505b505050565b600082821c905092915050565b6000610d7660001984600802610d58565b1980831691505092915050565b6000610d8f8383610d65565b9150826002028217905092915050565b610da882610872565b67ffffffffffffffff811115610dc157610dc0610649565b5b610dcb8254610bc2565b610dd6828285610d12565b600060209050601f831160018114610e095760008415610df7578287015190505b610e018582610d83565b865550610e69565b601f198416610e1786610bf3565b60005b82811015610e3f57848901518255600182019150602085019450602081019050610e1a565b86831015610e5c5784890151610e58601f891682610d65565b8355505b6001600288020188555050505b505050505050565b6000606082019050610e866000830186610a7b565b8181036020830152610e988185610a9b565b90508181036040830152610eac8184610a9b565b905094935050505056fea26469706673582212202d6328f17a7ec41c50dda9f23c7626b08e35f9e197c80d0208fdc163bbdff30064736f6c63430008170033",
  "linkReferences": {},
  "deployedLinkReferences": {}
}